:100000000C9434000C9451000C9451000C94510049
:100010000C9451000C9451000C9451000C94480421
:100020000C9451000C9451000C9451000C9451000C
:100030000C9451000C9451000C9451000C945100FC
:100040000C9451000C9451000C9451000C945100EC
:100050000C9451000C9451000C9451000C945100DC
:100060000C9451000C94510011241FBECFEFD8E026
:10007000DEBFCDBF11E0A0E0B1E0E2E9F0E102C0F7
:1000800005900D92A832B107D9F721E0A8E2B1E0BE
:1000900001C01D92A235B207E1F70E94FE040C9444
:1000A00047080C94000082E00E947C039C012E3FD4
:1000B00081E0380748F481E080930001263631055D
:1000C00010F583E090E0089582E080930001C9017B
:1000D0008E5F914086369105A0F3C9018456924007
:1000E00086369105B0F08656910986369105D0F096
:1000F0008656910986369105E8F0265933402A360E
:100100003105D8F00895C9018656910986369105C2
:1001100018F484E090E00895C9018C5C910986365A
:10012000910518F485E090E0089522533140263679
:10013000310518F486E090E0089587E090E0089596
:100140000F931F93CF93DF9300D000D000D0CDB793
:10015000DEB74D835E8300E010E02D813E81021703
:10016000130764F0CB010F900F900F900F900F903A
:100170000F90DF91CF911F910F9108950E943F063C
:1001800023E63CE947E85FE369837A838B839C83BA
:1001900069817A818B819C810E94CD0669837A83F3
:1001A0008B839C8369817A818B819C810E9410065C
:1001B0000F5F1F4FD2CFCF93DF9300D000D0CDB7CA
:1001C000DEB7A8E2B1E06C937093290180932A0115
:1001D00090932B0144E050E00E94A0009C01990FF5
:1001E000440B550B29833A834B835C8320932C016A
:1001F00030932D0140932E0150932F0143E050E0A6
:1002000069817A818B819C810E94A0009C01990F59
:10021000440B550B29833A834B835C832093300135
:1002200030933101409332015093330144E050E068
:1002300069817A818B819C810E94A0009C01990F29
:10024000440B550B29833A834B835C832093340101
:1002500030933501409336015093370143E050E02D
:1002600069817A818B819C810E94A0009C01990FF9
:10027000440B550B29833A834B835C8320933801CD
:100280003093390140933A0150933B0143E050E0F1
:1002900069817A818B819C810E94A0009C01990FC9
:1002A000440B550B29833A834B835C8320933C0199
:1002B00030933D0140933E0150933F0144E050E0B4
:1002C00069817A818B819C810E94A000092E000C9B
:1002D000AA0BBB0B8093400190934101A093420174
:1002E000B09343010F900F900F900F90DF91CF913B
:1002F0000895CF93DF9300D000D0CDB7DEB7A8E24A
:10030000B1E06C937093290180932A0190932B01A3
:1003100043E050E00E94A0009C01990F440B550B54
:1003200029833A834B835C8320932C0130932D01E6
:1003300040932E0150932F0144E050E069817A816F
:100340008B819C810E94A0009C01990F440B550B4E
:1003500029833A834B835C832093300130933101AE
:10036000409332015093330143E050E069817A8138
:100370008B819C810E94A0009C01990F440B550B1E
:1003800029833A834B835C83209334013093350176
:10039000409336015093370144E050E069817A81FF
:1003A0008B819C810E94A0009C01990F440B550BEE
:1003B00029833A834B835C8320933801309339013E
:1003C00040933A0150933B0143E050E069817A81C8
:1003D0008B819C810E94A0009C01990F440B550BBE
:1003E00029833A834B835C8320933C0130933D0106
:1003F00040933E0150933F0144E050E069817A818F
:100400008B819C810E94A000092E000CAA0BBB0BC3
:100410008093400190934101A0934201B093430126
:100420000F900F900F900F90DF91CF9108950F9341
:100430001F93CF93DF9300D000D000D0CDB7DEB7AD
:1004400081E00E947C039C018655910985359105C8
:1004500008F457C0855591098635910508F456C0B2
:10046000865591098535910508F455C08555910942
:100470008535910508F454C0855591098535910558
:1004800008F451C0855591098635910508F44EC090
:10049000865591098535910508F44BC01E821D8251
:1004A000C9018B5A92408535910508F445C08555A0
:1004B00091098635910508F442C086559109853524
:1004C000910508F43FC02B5A33408BE090E025356E
:1004D000310518F100E010E06CED70E080E090E094
:1004E0002D813E812017310781F5CB010F900F90B0
:1004F0000F900F900F900F90DF91CF911F910F9160
:10050000089581E090E09E838D83CACF22E030E0A1
:100510003E832D83DFCF83E090E09E838D83DACF0F
:1005200024E030E0F5CF85E090E0F7CF26E030E042
:10053000EFCF87E090E0F1CF28E030E0E9CF89E02D
:1005400090E0EBCF2AE030E0E3CF0E943F0623E6C5
:100550003CE947E85FE369837A838B839C83698105
:100560007A818B819C810E94CD0669837A838B83FB
:100570009C8369817A818B819C810E9410060F5F28
:100580001F4FAECFCF93DF93EC0182E00E94B10406
:100590002A988FE39CE90197F1F700C000008D2FA6
:1005A0000E94CC048C2F0E94CC042A9ADF91CF9118
:1005B000089580E091E00C94C2020F931F93CF93B3
:1005C000DF9300D000D000D0CDB7DEB74E835D837F
:1005D0000E943F0620E030E040E85DE469837A83D2
:1005E0008B839C8369817A818B819C810E94CD065B
:1005F00020E23CEB4EEB5BE469837A838B839C8344
:1006000069817A818B819C810E949E0569837A83AE
:100610008B839C8369817A818B819C810E941006E7
:100620008B019C01CB019F734EE036952795179562
:1006300007954A95D1F71F7390640E94C202C801C2
:1006400090640E94C20280E090EC0E94C2028E81FF
:100650009D810F900F900F900F900F900F90DF9152
:10066000CF911F910F910C94C202CF92DF92EF9223
:10067000FF920F931F93CF93DF9300D000D000D051
:10068000CDB7DEB78D839E83F62EE72E88E2C82E87
:1006900081E0D82E00E010E0AD81BE810A171B0773
:1006A0007CF00F900F900F900F900F900F90DF91B4
:1006B000CF911F910F91FF90EF90DF90CF90089511
:1006C000F60181919191A191B1916F0189839A83F2
:1006D000AB83BC834F2D5E2DBC01CD010E94DD029A
:1006E000FFEF28EF85E1F15020408040E1F700C0A6
:1006F00000000F5F1F4FD0CF90917C0090649093CB
:100700007C0090917A00976090937A0090917A00A3
:10071000906890937A0090917C00982B90937C0045
:1007200090917C00907F90937C00833029F190F42D
:100730008130C1F08230E1F080917A008064809352
:100740007A0080917A0086FDFCCF809178009091AC
:10075000790008958430A1F0853071F780917C0094
:10076000856003C080917C00816080937C00E4CF31
:1007700080917C008260F9CF80917C008360F5CF0E
:1007800080917C008460F1CF82E08093B00094E09F
:100790009093B1008093700089EF8093B300089527
:1007A000CF93DF9300D000D0CDB7DEB78FB7F894EA
:1007B00020914401309145014091460150914701FB
:1007C00029833A834B835C838FBF69817A818B81D4
:1007D0009C810F900F900F900F90DF91CF91089513
:1007E000E4E6F0E080818F7B8083E0E7F0E08081C9
:1007F000826080830895E0E7F0E080818D7F8083D0
:10080000E4E6F0E080818064808308958FB7F894F7
:100810001092440110924501109246011092470136
:100820008FBF0895462F572FBC012FB7F8948091A2
:10083000440190914501A0914601B0914701840F78
:10084000951FA61FB71F8093440190934501A09365
:100850004601B09347012FBF0895462F572FBC0183
:100860002FB7F8948091440190914501A0914601E1
:10087000B0914701841B950BA60BB70B80934401E5
:1008800090934501A0934601B09347012FBF08956F
:100890001F921FB61F9211248F939F93AF93BF9304
:1008A0008091440190914501A0914601B09147018A
:1008B0000196A11DB11D8093440190934501A09321
:1008C0004601B0934701BF91AF919F918F911F90C7
:1008D0001FBE1F901895CF93C82F8A3019F48DE052
:1008E0000E946B048091C00085FFFCCFC093C600BE
:1008F00080E090E0CF9108958091C00087FFFCCF09
:100900008091C60090E008951092C50087E680931C
:10091000C400E0ECF0E080818D7F808386E08093EE
:10092000C20088E18093C10008950E948404E8E435
:10093000F1E08FE091E09383828381E091E0918305
:100940008083089584B18C6284B92C9A8CB58061BF
:100950008CBD8CB58CBD8DB58DBD8CB580648CBDCA
:100960000895813049F48CB58CBD8CB584608CBD04
:100970008CB58CBD8CB50EC0823029F48CB58860E6
:100980008CBD8CB5F4CF833099F78CB588608CBD65
:100990008CB584608CBD08958EBD0DB407FEFDCF6F
:1009A00008951EBC0DB407FEFDCF8EBD0DB407FE2D
:1009B000FDCF0895A4E0B0E0E0EEF4E00C94EF0782
:1009C000FC010FB6F89480914E0190914F01A091D7
:1009D0005001B091510189839A83AB83BC830FBED0
:1009E000309721F080839183A283B38369817A81D8
:1009F0008B819C812496E2E00C940B08CDB7DEB786
:100A000028970FB6F894DEBF0FBECDBF0E949504A5
:100A10000E94A2042FEF31EE44E0215030404040CC
:100A2000E1F700C000000E94D9025FEF81EE94E080
:100A3000515080409040E1F700C0000080E091E21A
:100A40000E94C202AFEFB1EE24E0A150B0402040BE
:100A5000E1F700C000000E94C403789480E090E0B9
:100A60000E94DA04CB010E94A20719821A821B821B
:100A70001C8210E083E0E82EF12C80E00E947C03D1
:100A80006C010E94D0036D837E838F839887898158
:100A90009A81AB81BC814D815E816F817885481BD5
:100AA000590B6A0B7B0BC601A0E0B0E084179507D9
:100AB000A607B70700F50E94D003462F572FBC01A9
:100AC00049835A836B837C8334E0139FF0011124A4
:100AD000E85DFE4F80819181A281B38148E250E2BE
:100AE000BC01CD010E94DD021F5F812F90E08E15B9
:100AF0009F0508F010E00E9417029C01990F440B1B
:100B0000550B2D833E834F8358870E9453007C01F1
:100B100080910001813031F46D817E818F819885D3
:100B20000E94DB0080910001823009F0A6CF6D8128
:100B30007E818F8198850E9479019FCF0E94B205A6
:100B40000C9493060E948C0658F00E94850640F093
:100B500029F45F3F29F00C947C0651110C94C706D0
:100B60000C9482060E94A40668F39923B1F35523DE
:100B700091F3951B550BBB27AA27621773078407B0
:100B800038F09F5F5F4F220F331F441FAA1FA9F346
:100B900035D00E2E3AF0E0E832D091505040E69534
:100BA000001CCAF72BD0FE2F29D0660F771F881F95
:100BB000BB1F261737074807AB07B0E809F0BB0B88
:100BC000802DBF01FF2793585F4F3AF09E3F51059C
:100BD00078F00C947C060C94C7065F3FE4F3983ED3
:100BE000D4F3869577956795B795F7959F5FC9F785
:100BF000880F911D9695879597F90895E1E0660F06
:100C0000771F881FBB1F621773078407BA0720F07E
:100C1000621B730B840BBA0BEE1F88F7E0950895E7
:100C20000E94AC0688F09F5798F0B92F9927B751CA
:100C3000B0F0E1F0660F771F881F991F1AF0BA9580
:100C4000C9F714C0B13091F00E94C606B1E0089512
:100C50000C94C606672F782F8827B85F39F0B93F04
:100C6000CCF3869577956795B395D9F73EF4909533
:100C70008095709561957F4F8F4F9F4F0895E894B1
:100C800009C097FB3EF490958095709561957F4FD4
:100C90008F4F9F4F9923A9F0F92F96E9BB27939582
:100CA000F695879577956795B795F111F8CFFAF492
:100CB000BB0F11F460FF1BC06F5F7F4F8F4F9F4FC3
:100CC00016C0882311F096E911C0772321F09EE821
:100CD000872F762F05C0662371F096E8862F70E087
:100CE00060E02AF09A95660F771F881FDAF7880F61
:100CF0009695879597F9089597F99F6780E870E032
:100D000060E008959FEF80EC089500240A94161681
:100D1000170618060906089500240A9412161306E9
:100D2000140605060895092E0394000C11F4882377
:100D300052F0BB0F40F4BF2B11F460FF04C06F5F93
:100D40007F4F8F4F9F4F089557FD9058440F551F69
:100D500059F05F3F71F04795880F97FB991F61F03D
:100D60009F3F79F087950895121613061406551FB4
:100D7000F2CF4695F1DF08C0161617061806991F20
:100D8000F1CF86957105610508940895E894BB2715
:100D900066277727CB0197F908950E94E0060C9407
:100DA00093060E94850638F00E948C0620F0952359
:100DB00011F00C947C060C94820611240C94C70646
:100DC0000E94A40670F3959FC1F3950F50E0551F44
:100DD000629FF001729FBB27F00DB11D639FAA2790
:100DE000F00DB11DAA1F649F6627B00DA11D661FDF
:100DF000829F2227B00DA11D621F739FB00DA11D00
:100E0000621F839FA00D611D221F749F3327A00DB9
:100E1000611D231F849F600D211D822F762F6A2F55
:100E200011249F5750409AF0F1F088234AF0EE0FBA
:100E3000FF1FBB1F661F771F881F91505040A9F7E7
:100E40009E3F510580F00C947C060C94C7065F3FD2
:100E5000E4F3983ED4F3869577956795B795F79523
:100E6000E7959F5FC1F7FE2B880F911D969587959B
:100E700097F90895CF92DF92EF92FF92CF93DF938D
:100E8000CDB7DEB72A970FB6F894DEBF0FBECDBF41
:100E900089879A87A985BA852D913D914D915C915D
:100EA00029833A834B835C8382E49EECACE0BFE110
:100EB000211531054105510549F1CA01B9012DE15D
:100EC00033EF41E050E00E94AD0769017A01A7EAE3
:100ED000B1E49B01AC010E94CC0769837A838B83C8
:100EE0009C83ACEEB4EFA70196010E94DA079B0148
:100EF000AC0189819A81AB81BC81820F931FA41FB1
:100F0000B51FB7FF03C00197A109B048E985FA856D
:100F100080839183A283B3839F772A960FB6F89438
:100F2000DEBF0FBECDBFDF91CF91FF90EF90DF907E
:100F3000CF9008950E943A0708958DE191E00E94B4
:100F40003A070895A0E0B0E080931D0190931E0140
:100F5000A0931F01B09320010895052E97FB1EF466
:100F600000940E94C40757FD07D00E94160807FC92
:100F700003D04EF40C94C4075095409530952195BC
:100F80003F4F4F4F5F4F08959095809570956195B5
:100F90007F4F8F4F9F4F08950E943808A59F900D57
:100FA000B49F900DA49F800D911D11240895B7FF4B
:100FB0000C94CC070E94CC07821B930B08952F92B0
:100FC0003F924F925F926F927F928F929F92AF92D9
:100FD000BF92CF92DF92EF92FF920F931F93CF9326
:100FE000DF93CDB7DEB7CA1BDB0B0FB6F894DEBFBD
:100FF0000FBECDBF09942A88398848885F846E84E3
:101000007D848C849B84AA84B984C884DF80EE802C
:10101000FD800C811B81AA81B981CE0FD11D0FB635
:10102000F894DEBF0FBECDBFED010895A1E21A2EE8
:10103000AA1BBB1BFD010DC0AA1FBB1FEE1FFF1F7C
:10104000A217B307E407F50720F0A21BB30BE40BCC
:10105000F50B661F771F881F991F1A9469F7609513
:101060007095809590959B01AC01BD01CF010895CD
:10107000A29FB001B39FC001A39F700D811D1124D9
:10108000911DB29F700D811D1124911D0895F8943A
:02109000FFCF90
:1010920001000000010000000000007C04000000CC
:1010A200000002000000006B0400000000010000CC
:0810B2000002202820002000AC
:00000001FF
