:100000000C9434000C9451000C9451000C94510049
:100010000C9451000C9451000C9451000C94340435
:100020000C9451000C9451000C9451000C9451000C
:100030000C9451000C9451000C9451000C945100FC
:100040000C9451000C9451000C9451000C945100EC
:100050000C9451000C9451000C9451000C945100DC
:100060000C9451000C94510011241FBECFEFD8E026
:10007000DEBFCDBF11E0A0E0B1E0EAE5F1E102C0F2
:1000800005900D92A832B107D9F721E0A8E2B1E0BE
:1000900001C01D92A635B207E1F70E94EA040C9454
:1000A000AB080C94000085E00E9468039C012E328E
:1000B00083E0380718F510922B012C3C310538F4F9
:1000C00010922A0110922901109228010895C90165
:1000D0008C5C91098C3C910550F02859314083E0AB
:1000E00090E02A3C310528F482E090E002C081E0F3
:1000F00090E0909329018093280108952E52334077
:10010000223D3105D0F784E090E0F3CF82E00E94F9
:1001100068039C012E3F81E0380748F481E080931A
:1001200000012636310510F583E090E0089582E065
:1001300080930001C9018E5F914086369105A0F33E
:10014000C9018456924086369105B0F086569109D1
:1001500086369105D0F08656910986369105E8F0ED
:10016000265933402A363105D8F00895C9018656FC
:1001700091098636910518F484E090E00895C9014C
:100180008C5C91098636910518F485E090E008951D
:10019000225331402636310518F486E090E0089568
:1001A00087E090E008950F931F93CF93DF9300D0E3
:1001B00000D000D0CDB7DEB74D835E8300E010E005
:1001C0002D813E810217130764F0CB010F900F9031
:1001D0000F900F900F900F90DF91CF911F910F9183
:1001E00008950E94A30623E63CE947E85FE369839C
:1001F0007A838B839C8369817A818B819C810E9425
:10020000310769837A838B839C8369817A818B81AF
:100210009C810E9474060F5F1F4FD2CFCF93DF9354
:1002200000D000D0CDB7DEB7ACE2B1E06C937093F4
:100230002D0180932E0190932F0144E050E00E9405
:10024000D3009C01990F440B550B29833A834B83B0
:100250005C832093300130933101409332015093FD
:10026000330143E050E069817A818B819C810E9457
:10027000D3009C01990F440B550B29833A834B8380
:100280005C832093340130933501409336015093C1
:10029000370144E050E069817A818B819C810E9422
:1002A000D3009C01990F440B550B29833A834B8350
:1002B0005C83209338013093390140933A01509385
:1002C0003B0143E050E069817A818B819C810E94EF
:1002D000D3009C01990F440B550B29833A834B8320
:1002E0005C8320933C0130933D0140933E01509349
:1002F0003F0143E050E069817A818B819C810E94BB
:10030000D3009C01990F440B550B29833A834B83EF
:100310005C8320934001309341014093420150930C
:10032000430144E050E069817A818B819C810E9485
:10033000D300092E000CAA0BBB0B809344019093B1
:100340004501A0934601B09347010F900F900F9085
:100350000F90DF91CF910895CF93DF9300D000D01D
:10036000CDB7DEB7ACE2B1E06C9370932D01809312
:100370002E0190932F0143E050E00E94D3009C0196
:10038000990F440B550B29833A834B835C8320934D
:10039000300130933101409332015093330144E0F6
:1003A00050E069817A818B819C810E94D3009C01FD
:1003B000990F440B550B29833A834B835C8320931D
:1003C000340130933501409336015093370143E0B7
:1003D00050E069817A818B819C810E94D3009C01CD
:1003E000990F440B550B29833A834B835C832093ED
:1003F00038013093390140933A0150933B0144E076
:1004000050E069817A818B819C810E94D3009C019C
:10041000990F440B550B29833A834B835C832093BC
:100420003C0130933D0140933E0150933F0143E036
:1004300050E069817A818B819C810E94D3009C016C
:10044000990F440B550B29833A834B835C8320938C
:10045000400130934101409342015093430144E0F5
:1004600050E069817A818B819C810E94D300092EA2
:10047000000CAA0BBB0B8093440190934501A09301
:100480004601B09347010F900F900F900F90DF91AE
:10049000CF9108950F931F93CF93DF9300D000D097
:1004A00000D0CDB7DEB781E00E9468039C0186557D
:1004B00091098535910508F457C085559109863510
:1004C000910508F456C0865591098535910508F4C3
:1004D00055C0855591098535910508F454C0855559
:1004E00091098535910508F451C0855591098635E6
:1004F000910508F44EC0865591098535910508F49B
:100500004BC01E821D82C9018B5A924085359105D0
:1005100008F445C0855591098635910508F442C017
:10052000865591098535910508F43FC02B5A334013
:100530008BE090E02535310518F100E010E06CED1E
:1005400070E080E090E02D813E812017310781F539
:10055000CB010F900F900F900F900F900F90DF91A5
:10056000CF911F910F91089581E090E09E838D833C
:10057000CACF22E030E03E832D83DFCF83E090E0DE
:100580009E838D83DACF24E030E0F5CF85E090E0E4
:10059000F7CF26E030E0EFCF87E090E0F1CF28E022
:1005A00030E0E9CF89E090E0EBCF2AE030E0E3CF24
:1005B0000E94A30623E63CE947E85FE369837A8368
:1005C0008B839C8369817A818B819C810E94310716
:1005D00069837A838B839C8369817A818B819C81F7
:1005E0000E9474060F5F1F4FAECFCF93DF93EC01D5
:1005F00082E00E949D042A988FE39CE90197F1F71D
:1006000000C000008D2F0E94B8048C2F0E94B804F7
:100610002A9ADF91CF91089580E091E00C94F50241
:100620000F931F93CF93DF9300D000D000D0CDB7AE
:10063000DEB74E835D830E94A30620E030E040E8F1
:100640005DE469837A838B839C8369817A818B8162
:100650009C810E94310720E23CEB4EEB5BE4698316
:100660007A838B839C8369817A818B819C810E94B0
:10067000020669837A838B839C8369817A818B816B
:100680009C810E9474068B019C01CB019F734EE0FC
:1006900036952795179507954A95D1F71F7390645E
:1006A0000E94F502C80190640E94F50280E090EC7F
:1006B0000E94F5028E819D810F900F900F900F90F8
:1006C0000F900F90DF91CF911F910F910C94F50235
:1006D00090917C00906490937C0090917A00976058
:1006E00090937A0090917A00906890937A0090911C
:1006F0007C00982B90937C0090917C00907F90934D
:100700007C00833029F190F48130C1F08230E1F037
:1007100080917A00806480937A0080917A0086FDCF
:10072000FCCF809178009091790008958430A1F0F9
:10073000853071F780917C00856003C080917C00DA
:10074000816080937C00E4CF80917C008260F9CF4F
:1007500080917C008360F5CF80917C008460F1CF34
:1007600082E08093B00094E09093B1008093700099
:1007700089EF8093B3000895CF93DF9300D000D02A
:10078000CDB7DEB78FB7F894209148013091490179
:1007900040914A0150914B0129833A834B835C83FA
:1007A0008FBF69817A818B819C810F900F900F9010
:1007B0000F90DF91CF910895E4E6F0E080818F7B88
:1007C0008083E0E7F0E08081826080830895E0E745
:1007D000F0E080818D7F8083E4E6F0E080818064BA
:1007E000808308958FB7F8941092480110924901C0
:1007F00010924A0110924B018FBF0895462F572F38
:10080000BC012FB7F8948091480190914901A091C3
:100810004A01B0914B01840F951FA61FB71F80930B
:10082000480190934901A0934A01B0934B012FBF17
:100830000895462F572FBC012FB7F8948091480197
:1008400090914901A0914A01B0914B01841B950BF5
:10085000A60BB70B8093480190934901A0934A01DE
:10086000B0934B012FBF08951F921FB61F92112402
:100870008F939F93AF93BF938091480190914901CB
:10088000A0914A01B0914B010196A11DB11D809329
:10089000480190934901A0934A01B0934B01BF9145
:1008A000AF919F918F911F901FBE1F901895CF936E
:1008B000C82F8A3019F48DE00E9457048091C0003F
:1008C00085FFFCCFC093C60080E090E0CF910895F3
:1008D0008091C00087FFFCCF8091C60090E0089512
:1008E0001092C50087E68093C400E0ECF0E08081C0
:1008F0008D7F808386E08093C20088E18093C10071
:1009000008950E947004ECE4F1E08FE091E093839D
:10091000828381E091E091838083089584B18C6229
:1009200084B92C9A8CB580618CBD8CB58CBD8DB58D
:100930008DBD8CB580648CBD0895813049F48CB533
:100940008CBD8CB584608CBD8CB58CBD8CB50EC057
:10095000823029F48CB588608CBD8CB5F4CF83309F
:1009600099F78CB588608CBD8CB584608CBD08957A
:100970008EBD0DB407FEFDCF08951EBC0DB407FE5D
:10098000FDCF8EBD0DB407FEFDCF0895A4E0B0E00D
:10099000ECECF4E00C945308FC010FB6F894809151
:1009A000520190915301A0915401B0915501898356
:1009B0009A83AB83BC830FBE309721F080839183F1
:1009C000A283B38369817A818B819C812496E2E042
:1009D0000C946F08CDB7DEB728970FB6F894DEBF3A
:1009E0000FBECDBF0E9481040E948E042FEF31EE16
:1009F00044E0215030404040E1F700C000000E9438
:100A00000C035FEF81EE94E0515080409040E1F79D
:100A100000C0000080E091E20E94F502AFEFB1EE6D
:100A200024E0A150B0402040E1F700C000000E9447
:100A3000B003789480E090E00E94C604CB010E944D
:100A4000060819821A821B821C82712C83E0E82E10
:100A5000F12CC12CDD24D39424E0A22EB12C33E060
:100A6000832E912C80E00E9468038C0180912801E4
:100A700090912901049739F40E940108B6010E945F
:100A8000EE0580932B010E94BC036D837E838F83D0
:100A9000988789819A81AB81BC812D813E814F816C
:100AA0005885281B390B4A0B5B0BDA01C9012091D1
:100AB0002B01020F111D20E030E0081719072A074B
:100AC0003B0708F043C00E94BC03462F572FBC01D0
:100AD00049835A836B837C838091280190912901FB
:100AE000892BC9F00E940108182F092F8091280135
:100AF00090912901029709F44DC0809128019091AD
:100B000029010397029708F44DC0812F902FB70158
:100B10000E94DA05782E80912A01823081F034E03B
:100B2000739EF0011124E45DFE4F80819181A281CA
:100B3000B38148E250E2BC01CD010E9410037394DE
:100B4000872D90E08E159F0508F0712C0E944A02B7
:100B50009C01990F440B550B2D833E834F8358877F
:100B60000E9486007C0180910001813031F46D810A
:100B70007E818F8198850E940E01809100018230D4
:100B800031F46D817E818F8198850E94AC010E9435
:100B9000530068CF0E940108B5010E94EE058093C2
:100BA0002A01ABCF0E940108B4010E94EE05809398
:100BB0002A01ABCFAA1BBB1B51E107C0AA1FBB1F59
:100BC000A617B70710F0A61BB70B881F991F5A95D9
:100BD000A9F780959095BC01CD01089597FB072E4C
:100BE00016F4009407D077FD09D00E94DA0507FCBF
:100BF00005D03EF4909581959F4F0895709561952D
:100C00007F4F08950E9416060C94F7060E94F00686
:100C100058F00E94E90640F029F45F3F29F00C9457
:100C2000E00651110C942B070C94E6060E9408076D
:100C300068F39923B1F3552391F3951B550BBB270B
:100C4000AA2762177307840738F09F5F5F4F220F50
:100C5000331F441FAA1FA9F335D00E2E3AF0E0E847
:100C600032D091505040E695001CCAF72BD0FE2F91
:100C700029D0660F771F881FBB1F26173707480725
:100C8000AB07B0E809F0BB0B802DBF01FF279358DD
:100C90005F4F3AF09E3F510578F00C94E0060C94BB
:100CA0002B075F3FE4F3983ED4F3869577956795DD
:100CB000B795F7959F5FC9F7880F911D9695879512
:100CC00097F90895E1E0660F771F881FBB1F621731
:100CD00073078407BA0720F0621B730B840BBA0BEF
:100CE000EE1F88F7E09508950E94100788F09F573F
:100CF00098F0B92F9927B751B0F0E1F0660F771F40
:100D0000881F991F1AF0BA95C9F714C0B13091F035
:100D10000E942A07B1E008950C942A07672F782FC4
:100D20008827B85F39F0B93FCCF3869577956795FA
:100D3000B395D9F73EF490958095709561957F4F66
:100D40008F4F9F4F0895E89409C097FB3EF490950C
:100D50008095709561957F4F8F4F9F4F9923A9F094
:100D6000F92F96E9BB279395F69587957795679523
:100D7000B795F111F8CFFAF4BB0F11F460FF1BC067
:100D80006F5F7F4F8F4F9F4F16C0882311F096E9FA
:100D900011C0772321F09EE8872F762F05C06623A8
:100DA00071F096E8862F70E060E02AF09A95660F61
:100DB000771F881FDAF7880F9695879597F908951A
:100DC00097F99F6780E870E060E008959FEF80ECFE
:100DD000089500240A9416161706180609060895A1
:100DE00000240A9412161306140605060895092E07
:100DF0000394000C11F4882352F0BB0F40F4BF2B76
:100E000011F460FF04C06F5F7F4F8F4F9F4F0895B5
:100E100057FD9058440F551F59F05F3F71F04795AB
:100E2000880F97FB991F61F09F3F79F08795089590
:100E3000121613061406551FF2CF4695F1DF08C0AF
:100E4000161617061806991FF1CF869571056105CC
:100E500008940895E894BB2766277727CB0197F974
:100E600008950E9444070C94F7060E94E90638F0A2
:100E70000E94F00620F0952311F00C94E0060C94EB
:100E8000E60611240C942B070E94080770F3959F27
:100E9000C1F3950F50E0551F629FF001729FBB2771
:100EA000F00DB11D639FAA27F00DB11DAA1F649F0D
:100EB0006627B00DA11D661F829F2227B00DA11DC0
:100EC000621F739FB00DA11D621F839FA00D611D46
:100ED000221F749F3327A00D611D231F849F600D67
:100EE000211D822F762F6A2F11249F5750409AF090
:100EF000F1F088234AF0EE0FFF1FBB1F661F771F1C
:100F0000881F91505040A9F79E3F510580F00C94E6
:100F1000E0060C942B075F3FE4F3983ED4F38695EC
:100F200077956795B795F795E7959F5FC1F7FE2B86
:100F3000880F911D9695879597F90895CF92DF9226
:100F4000EF92FF92CF93DF93CDB7DEB72A970FB61C
:100F5000F894DEBF0FBECDBF89879A87A985BA8571
:100F60002D913D914D915C9129833A834B835C8314
:100F700082E49EECACE0BFE121153105410551054D
:100F800049F1CA01B9012DE133EF41E050E00E947F
:100F9000110869017A01A7EAB1E49B01AC010E9442
:100FA000300869837A838B839C83ACEEB4EFA7010E
:100FB00096010E943E089B01AC0189819A81AB8118
:100FC000BC81820F931FA41FB51FB7FF03C00197F9
:100FD000A109B048E985FA8580839183A283B38310
:100FE0009F772A960FB6F894DEBF0FBECDBFDF9174
:100FF000CF91FF90EF90DF90CF9008950E949E07D1
:1010000008958DE191E00E949E070895A0E0B0E070
:1010100080931D0190931E01A0931F01B0932001A6
:101020000895052E97FB1EF400940E94280857FD92
:1010300007D00E947A0807FC03D04EF40C942808CD
:1010400050954095309521953F4F4F4F5F4F0895F4
:1010500090958095709561957F4F8F4F9F4F089524
:101060000E949C08A59F900DB49F900DA49F800D99
:10107000911D11240895B7FF0C9430080E94300888
:10108000821B930B08952F923F924F925F926F9223
:101090007F928F929F92AF92BF92CF92DF92EF9208
:1010A000FF920F931F93CF93DF93CDB7DEB7CA1B89
:1010B000DB0B0FB6F894DEBF0FBECDBF09942A88B4
:1010C000398848885F846E847D848C849B84AA845C
:1010D000B984C884DF80EE80FD800C811B81AA81E9
:1010E000B981CE0FD11D0FB6F894DEBF0FBECDBFB4
:1010F000ED010895A1E21A2EAA1BBB1BFD010DC034
:10110000AA1FBB1FEE1FFF1FA217B307E407F507B7
:1011100020F0A21BB30BE40BF50B661F771F881F93
:10112000991F1A9469F760957095809590959B0129
:10113000AC01BD01CF010895A29FB001B39FC001D2
:10114000A39F700D811D1124911DB29F700D811DF3
:0A1150001124911D0895F894FFCFBB
:10115A000100000001000000000000680400000017
:10116A000000020000000057040000000001000017
:08117A000002202820002000E3
:00000001FF
