:100000000C9434000C9451000C9451000C94510049
:100010000C9451000C9451000C9451000C94CB01A1
:100020000C9451000C9451000C9451000C9451000C
:100030000C9451000C9451000C9451000C945100FC
:100040000C9451000C9451000C9451000C945100EC
:100050000C9451000C9451000C9451000C945100DC
:100060000C9451000C94510011241FBECFEFD8E026
:10007000DEBFCDBF11E0A0E0B1E0E4E6F0E102C0F8
:1000800005900D92A035B107D9F721E0A0E5B1E0C8
:1000900001C01D92AA35B207E1F70E945D020C94DF
:1000A00030080C940000CF93DF93EC019F938F9363
:1000B0008CE291E09F938F930E943E0582E00E9424
:1000C00034022A988FE39CE90197F1F700C0000001
:1000D000CE0199279F938F9384E391E09F938F9311
:1000E0000E943E051F92DF938CE391E09F938F93D4
:1000F0000E943E058D2F0E944F028C2F0E944F02BE
:100100002A9A8DB79EB70C960FB6F8949EBF0FBE75
:100110008DBFDF91CF91089580E091E00C94530062
:100120000F931F93CF93DF9300D000D00F92CDB7E2
:10013000DEB70E94430420E030E040E85DE46983DC
:100140007A838B839C8369817A818B819C810E94D5
:10015000D10420E23CEB4EEB5BE469837A838B8332
:100160009C8369817A818B819C810E94A2038B018F
:100170008D8399839F938F931F936F9385E491E071
:100180009F938F930E943E059D81898109831A83E5
:100190009B838C8369817A818B819C810E9414046A
:1001A000462F572FBC01CA019F732EE076956795A5
:1001B000579547952A95D1F79A013F733A8329833A
:1001C00090640E94530089819A8190640E94530038
:1001D00080E090EC0E9453000F900F900F900F90D2
:1001E0000F900F9088E290E20F900F900F900F9079
:1001F0000F90DF91CF911F910F910C94530090912C
:100200007C00906490937C0090917A00976090932A
:100210007A0090917A00906890937A0090917C0097
:10022000982B90937C0090917C00907F90937C0021
:10023000833029F190F48130C1F08230E1F0809177
:100240007A00806480937A0080917A0086FDFCCFEA
:10025000809178009091790008958430A1F08530E4
:1002600071F780917C00856003C080917C00816083
:1002700080937C00E4CF80917C008260F9CF8091F4
:100280007C008360F5CF80917C008460F1CF82E0B8
:100290008093B00094E09093B1008093700089EF58
:1002A0008093B3000895CF93DF9300D000D0CDB7F3
:1002B000DEB78FB7F89420915001309151014091F1
:1002C00052015091530129833A834B835C838FBF42
:1002D00069817A818B819C810F900F900F900F9094
:1002E000DF91CF910895E4E6F0E080818F7B8083F9
:1002F000E0E7F0E08081826080830895E0E7F0E04D
:1003000080818D7F8083E4E6F0E08081806480835B
:1003100008958FB7F89410925001109251011092E5
:100320005201109253018FBF0895462F572FBC01E1
:100330002FB7F8948091500190915101A0915201F2
:10034000B0915301840F951FA61FB71F80935001D2
:1003500090935101A0935201B09353012FBF089580
:10036000462F572FBC012FB7F894809150019091E0
:100370005101A0915201B0915301841B950BA60B22
:10038000B70B8093500190935101A0935201B09309
:1003900053012FBF08951F921FB61F9211248F93F0
:1003A0009F93AF93BF938091500190915101A09181
:1003B0005201B09153010196A11DB11D80935001CE
:1003C00090935101A0935201B0935301BF91AF910B
:1003D0009F918F911F901FBE1F901895CF93C82F8C
:1003E0008A3019F48DE00E94EE018091C00085FFF3
:1003F000FCCFC093C60080E090E0CF91089580913B
:10040000C00087FFFCCF8091C60090E00895109255
:10041000C50087E68093C400E0ECF0E080818D7F2A
:10042000808386E08093C20088E18093C1000895B4
:100430000E940702E4E5F1E086E191E09383828384
:1004400088E091E091838083089584B18C6284B9BF
:100450002C9A8CB580618CBD8CB58CBD8DB58DBD55
:100460008CB580648CBD0895813049F48CB58CBD09
:100470008CB584608CBD8CB58CBD8CB50EC08230C3
:1004800029F48CB588608CBD8CB5F4CF833099F796
:100490008CB588608CBD8CB584608CBD08958EBD94
:1004A0000DB407FEFDCF08951EBC0DB407FEFDCFB1
:1004B0008EBD0DB407FEFDCF08950E9418020E9464
:1004C00025022FEF81EE94E0215080409040E1F72B
:1004D00000C000000E948C00AFEFB1EE24E0A150FC
:1004E000B0402040E1F700C0000080E091E20E94AF
:1004F00053008FEF91EEA4E081509040A040E1F7CF
:1005000000C0000088EB91E0A0E0B0E08093000123
:1005100090930101A0930201B093030148E250E2DD
:1005200068EB71E080E090E00E949000BFEF23ED67
:1005300080E3B15020408040E1F700C0000080E738
:1005400093E0A0E0B0E08093000190930101A093BC
:100550000201B093030148E250E260E773E080E0FB
:1005600090E00E9490008BE0482E82E0582E612C93
:10057000712C9BE4892E92E0992EA12CB12C23E9B9
:10058000C22E22E0D22EE12CF12C4092000150929A
:100590000101609202017092030148E250E26BE0B7
:1005A00072E080E090E00E9490009FEFAFECB7E037
:1005B0009150A040B040E1F700C0000080920001DF
:1005C00090920101A0920201B092030148E250E230
:1005D0006BE472E080E090E00E9490002FEF8FECDF
:1005E00097E0215080409040E1F700C00000C092A9
:1005F0000001D0920101E0920201F092030148E271
:1006000050E263E972E080E090E00E949000AFEF7A
:10061000BFE12EE4A150B0402040E1F700C000004F
:100620008AEB92E0A0E0B0E080930001909301019A
:10063000A0930201B093030148E250E26AEB72E03A
:1006400080E090E00E9490009FEFAFECB7E0915007
:10065000A040B040E1F700C000008FE093E0A0E0D0
:10066000B0E08093000190930101A0930201B09348
:10067000030148E250E26FE073E080E090E00E9406
:1006800090009FEFAFE1BEE49150A040B040E1F791
:1006900000C0000080E793E0A0E0B0E0809300019C
:1006A00090930101A0930201B093030148E250E24C
:1006B00060E773E080E090E00E9490009FEFAFE180
:1006C000BEE49150A040B040E1F700C000008BEDC7
:1006D00093E0A0E0B0E08093000190930101A0932B
:1006E0000201B093030148E250E26BED73E080E059
:1006F00090E00E9490009FEFAFECB7E09150A040D7
:10070000B040E1F700C0000086E194E0A0E0B0E076
:100710008093000190930101A0930201B093030123
:1007200048E250E266E174E080E090E00E949000D0
:100730009FEFAFE1BEE49150A040B040E1F700C0B0
:10074000000023CF0E94B6030C9497040E949004EB
:1007500058F00E94890440F029F45F3F29F00C947E
:10076000800451110C94CB040C9486040E94A804BC
:1007700068F39923B1F3552391F3951B550BBB27D0
:10078000AA2762177307840738F09F5F5F4F220F15
:10079000331F441FAA1FA9F335D00E2E3AF0E0E80C
:1007A00032D091505040E695001CCAF72BD0FE2F56
:1007B00029D0660F771F881FBB1F261737074807EA
:1007C000AB07B0E809F0BB0B802DBF01FF279358A2
:1007D0005F4F3AF09E3F510578F00C9480040C94E2
:1007E000CB045F3FE4F3983ED4F386957795679505
:1007F000B795F7959F5FC9F7880F911D96958795D7
:1008000097F90895E1E0660F771F881FBB1F6217F5
:1008100073078407BA0720F0621B730B840BBA0BB3
:10082000EE1F88F7E09508950E94B00488F09F5766
:1008300098F0B92F9927B751B0F0E1F0660F771F04
:10084000881F991F1AF0BA95C9F714C0B13091F0FA
:100850000E94CA04B1E008950C94CA04672F782F4F
:100860008827B85F39F0B93FCCF3869577956795BF
:10087000B395D9F73EF490958095709561957F4F2B
:100880008F4F9F4F0895E89409C097FB3EF49095D1
:100890008095709561957F4F8F4F9F4F9923A9F059
:1008A000F92F96E9BB279395F695879577956795E8
:1008B000B795F111F8CFFAF4BB0F11F460FF1BC02C
:1008C0006F5F7F4F8F4F9F4F16C0882311F096E9BF
:1008D00011C0772321F09EE8872F762F05C066236D
:1008E00071F096E8862F70E060E02AF09A95660F26
:1008F000771F881FDAF7880F9695879597F90895DF
:1009000097F99F6780E870E060E008959FEF80ECC2
:10091000089500240A941616170618060906089565
:1009200000240A9412161306140605060895092ECB
:100930000394000C11F4882352F0BB0F40F4BF2B3A
:1009400011F460FF04C06F5F7F4F8F4F9F4F08957A
:1009500057FD9058440F551F59F05F3F71F0479570
:10096000880F97FB991F61F09F3F79F08795089555
:10097000121613061406551FF2CF4695F1DF08C074
:10098000161617061806991FF1CF86957105610591
:1009900008940895E894BB2766277727CB0197F939
:1009A00008950E94E4040C9497040E94890438F08E
:1009B0000E94900420F0952311F00C9480040C9474
:1009C000860411240C94CB040E94A80470F3959F14
:1009D000C1F3950F50E0551F629FF001729FBB2736
:1009E000F00DB11D639FAA27F00DB11DAA1F649FD2
:1009F0006627B00DA11D661F829F2227B00DA11D85
:100A0000621F739FB00DA11D621F839FA00D611D0A
:100A1000221F749F3327A00D611D231F849F600D2B
:100A2000211D822F762F6A2F11249F5750409AF054
:100A3000F1F088234AF0EE0FFF1FBB1F661F771FE0
:100A4000881F91505040A9F79E3F510580F00C94AB
:100A500080040C94CB045F3FE4F3983ED4F3869576
:100A600077956795B795F795E7959F5FC1F7FE2B4B
:100A7000880F911D9695879597F90895A0E0B0E0AD
:100A8000E4E4F5E00C940908AE014B5F5F4FFA0116
:100A900061917191AF0180915601909157010E942F
:100AA0005405E2E00C942508AFE0B0E0EAE5F5E09B
:100AB0000C94FC076C017B018A01DC0117961C92E7
:100AC0001E92169713968C9181FFECC12AE0522E4C
:100AD000F6019381F70193FD859193FF81917F0149
:100AE000882309F473C0853239F493FD859193FF0F
:100AF00081917F01853229F4B60190E00E946B0755
:100B0000E7CF912C612C712CFFE1F71508F446C05A
:100B10008B32C9F1F8F48032C1F1833209F43BC061
:100B2000833609F48AC0833709F493C0833509F00A
:100B3000B6C0F801A190B1908F01692D70E076FCEC
:100B400002C06FEF7FEFC5010E9455074C0168940A
:100B500077F85FC08D32E1F0803351F020ED280F3F
:100B60002A3048F18E3209F039C0689476F802C014
:100B7000689470F8F70193FD859193FF81917F014F
:100B80008111C2CF33C0689471F8689472F8F2CFC3
:100B9000689473F8EFCF689474F8ECCF77FC26C0B4
:100BA00020ED280F2A3070F476FE05C0959C200DAC
:100BB0001124922EDFCF659C200D1124622E6894A3
:100BC00075F8D8CF8E3251F476FECFCFD601169677
:100BD0008D919C912F96EFE00C9418088C3619F4A7
:100BE000689477F8C7CF883609F4C4CF982F9F7DD3
:100BF0009554933008F094CF0C5F1F4F8FE3898397
:100C000088248394912CAE014F5F5F4F5A01E89482
:100C100077F873FC05C0862D90E08816990640F1A0
:100C20008114910461F5662009F452CFB60180E287
:100C300090E00E946B076A94F6CFD8018C9189836B
:100C40000E5F1F4F88248394912CFE0131965F0123
:100C5000DECFD801AD90BD908D01692D70E076FC9E
:100C600002C06FEF7FEFC5010E9460074C01CFCF3C
:100C7000B60180E290E00E946B076A94CCCFF50148
:100C800077FC859177FE81915F01B60190E00E942B
:100C90006B0761106A94F1E08F1A9108C1CF843616
:100CA00019F0893609F081C0F80177FE77C06191AB
:100CB0007191819191918F01272D2F76822E97FF2F
:100CC00009C090958095709561957F4F8F4F9F4F8C
:100CD000689487F82AE030E0AE014F5F5F4F5A0119
:100CE0000E949B078A19A82EBA2C782C86FE0CC06D
:100CF000E89470F8A91440F484FE05C082FC03C097
:100D0000782D7E7E772EB92C74FEA5C0FE01EA0DEB
:100D1000F11D8081803309F097C0872D897E782E60
:100D200073FC0EC070FEA6C09A2CB61418F4960C74
:100D30009B18B62C862D8B196B1408F480E0B80E26
:100D4000B61408F099C06B1874FE98C0B60180E321
:100D500090E00E946B0772FE09C088E590E071FC8C
:100D600002C088E790E0B6010E946B07A91408F45E
:100D700092C0AA94B12C9FEFA91AB90ADE0111966C
:100D80004D01AA0EBB1EF50182915F01B60190E0F4
:100D90000E946B078A149B04B1F745CF6191719152
:100DA000072E000C880B990B86CF872CE89484F8CB
:100DB0002AE030E0853769F0572D597F852E80373E
:100DC00071F118F5883571F18F3609F0FFCE28E002
:100DD00030E0F80187FE2EC081919191A191B191EF
:100DE0008C879D87AE87BF878F01BE016F5F7F4F66
:100DF0005B01AB016C857D858E859F850E949B077D
:100E00008A19A82EE89487F86FCF883709F0DECECC
:100E100084FE02C0689482F820E130E0DACF689462
:100E200084F8F6CF74FE03C0652F6660862E20E13D
:100E300032E0CFCF81919191AC0160E070E04C87BE
:100E40005D876E877F87D0CF72FC02C0B39468CF76
:100E5000B394B39465CF872D8678882309F460CF47
:100E6000F5CFB60180E290E00E946B078394861470
:100E7000C0F360CF8B2CFBCF612C66CF872D86789B
:100E8000882309F473CF8BE271FE80E277FC8DE258
:100E9000B60190E069CFB60180E390E00E946B0755
:100EA0009A9464CF8FEF9FEF95CEFC01059061502F
:100EB00070400110D8F7809590958E0F9F1F089570
:100EC000FC016150704001900110D8F78095909519
:100ED0008E0F9F1F08950F931F93CF93DF93182FAB
:100EE000092FEB018B8181FD09C01FEF0FEF812FCF
:100EF000902FDF91CF911F910F91089582FF14C021
:100F00002E813F818C819D81281739073CF4E8812F
:100F1000F981CF0101969983888310838E819F8107
:100F200001969F838E83E3CFE885F985812F09950C
:100F3000892BA1F3DACFFA01AA27283051F1203109
:100F400081F1E8946F936E7F6E5F7F4F8F4F9F4F5D
:100F5000AF4FB1E03ED0B4E03CD0670F781F891F9F
:100F60009A1FA11D680F791F8A1F911DA11D6A0F6D
:100F7000711D811D911DA11D20D009F468943F9120
:100F80002AE0269F11243019305D3193DEF6CF011F
:100F90000895462F4770405D4193B3E00FD0C9F7E5
:100FA000F6CF462F4F70405D4A3318F0495D31FD52
:100FB0004052419302D0A9F7EACFB4E0A6959795A5
:100FC000879577956795BA95C9F70097610571057B
:100FD00008959B01AC010A2E0694579547953795C5
:100FE0002795BA95C9F7620F731F841F951FA01D1F
:100FF00008952F923F924F925F926F927F928F92BD
:101000009F92AF92BF92CF92DF92EF92FF920F9397
:101010001F93CF93DF93CDB7DEB7CA1BDB0B0FB6A1
:10102000F894DEBF0FBECDBF09942A88398848885E
:101030005F846E847D848C849B84AA84B984C884F4
:10104000DF80EE80FD800C811B81AA81B981CE0FEB
:10105000D11D0FB6F894DEBF0FBECDBFED010895D0
:04106000F894FFCF32
:101064000500000040787D01000000010000000040
:101074000000FF0100000000000200000000EE017B
:10108400000000000A000220282000204441543AB5
:10109400202564004C4F573A2025640048494748AE
:1010A4003A20256400544545535420256C660000BD
:00000001FF
