:100000000C9434000C9451000C9451000C94510049
:100010000C9451000C9451000C9451000C94030367
:100020000C9451000C9451000C9451000C9451000C
:100030000C9451000C9451000C9451000C945100FC
:100040000C9451000C9451000C9451000C945100EC
:100050000C9451000C9451000C9451000C945100DC
:100060000C9451000C94510011241FBECFEFD8E026
:10007000DEBFCDBF11E0A0E0B1E0E2EEF0E102C0F2
:1000800005900D92A634B107D9F721E0A6E4B1E0BE
:1000900001C01D92A035B207E1F70E9495030C94B0
:1000A0006F080C9400000F931F93CF93DF9300D041
:1000B00000D000D0CDB7DEB781E00E9437029C01AE
:1000C000865591098535910508F457C085559109E4
:1000D0008635910508F456C08655910985359105F8
:1000E00008F455C0855591098535910508F454C02B
:1000F000855591098535910508F451C085559109BB
:100100008635910508F44EC08655910985359105CF
:1001100008F44BC01E821D82C9018B5A924085355E
:10012000910508F445C0855591098635910508F477
:1001300042C0865591098535910508F43FC02B5A78
:1001400033408BE090E02635310518F100E010E0F7
:1001500068EB71E080E090E02D813E81201731074F
:1001600081F5CB010F900F900F900F900F900F9093
:10017000DF91CF911F910F91089581E090E09E83D0
:100180008D83CACF22E030E03E832D83DFCF83E032
:1001900090E09E838D83DACF24E030E0F5CF85E0D8
:1001A00090E0F7CF26E030E0EFCF87E090E0F1CFAE
:1001B00028E030E0E9CF89E090E0EBCF2AE030E0C2
:1001C000E3CF0E94820423E63CE947E85FE36983CA
:1001D0007A838B839C8369817A818B819C810E9445
:1001E000100569837A838B839C8369817A818B81F3
:1001F0009C810E9453040F5F1F4FAECFCF93DF93BC
:10020000EC019F938F9382E291E09F938F930E94E2
:100210007D0582E00E946C032A988FE39CE9019798
:10022000F1F700C00000CE0199279F938F938AE2D7
:1002300091E09F938F930E947D051F92DF9382E34D
:1002400091E09F938F930E947D058D2F0E948703DD
:100250008C2F0E9487032A9A8DB79EB70C960FB6F3
:10026000F8949EBF0FBE8DBFDF91CF91089580E0BF
:1002700091E00C94FE00EF92FF920F931F93CF93A7
:10028000DF9300D000D00F92CDB7DEB7F42E5D83A0
:100290000E94820420E030E040E85DE469837A83D4
:1002A0008B839C8369817A818B819C810E9410055C
:1002B00020E23CEB4EEB5BE469837A838B839C8387
:1002C00069817A818B819C810E94E103E62E79838A
:1002D0008C011F938F9389818F93EF928BE391E031
:1002E0009F938F930E947D052981E9822A830B8346
:1002F0001C8369817A818B819C810E9453048B01CC
:100300009C01CB019F734EE0369527951795079575
:100310004A95D1F71F7390640E94FE00C801906453
:100320000E94FE0080E090EC0E94FE000F900F9073
:100330000F900F900F900F908F2D9D810F900F9029
:100340000F900F900F90DF91CF911F910F91FF9021
:10035000EF900C94FE00CF92DF92EF92FF920F93FA
:100360001F93CF93DF9300D000D00F92CDB7DEB7AD
:100370008B018D8399836A0184E0E82EF12CA6011C
:10038000B8018D8199810E943B012FEF83EC99E0A8
:10039000215080409040E1F700C00000B8018D81FD
:1003A00099810E94820423E63CE947E85FE3698380
:1003B0007A838B839C8369817A818B819C810E9463
:1003C000100569837A838B839C8369817A818B8111
:1003D0009C810E9453040E94820423E63CE947E882
:1003E0005FE369837A838B839C8369817A818B81C4
:1003F0009C810E94100569837A838B839C83698129
:100400007A818B819C810E9453040E94820423E69E
:100410003CE947E85FE369837A838B839C83698146
:100420007A818B819C810E94100569837A838B83FA
:100430009C8369817A818B819C810E9453048B010A
:100440008D83998321E0E21AF108E114F10409F0A7
:1004500096CF0F900F900F900F900F90DF91CF914C
:100460001F910F91FF90EF90DF90CF9008959091A2
:100470007C00906490937C0090917A0097609093B8
:100480007A0090917A00906890937A0090917C0025
:10049000982B90937C0090917C00907F90937C00AF
:1004A000833029F190F48130C1F08230E1F0809105
:1004B0007A00806480937A0080917A0086FDFCCF78
:1004C000809178009091790008958430A1F0853072
:1004D00071F780917C00856003C080917C00816011
:1004E00080937C00E4CF80917C008260F9CF809182
:1004F0007C008360F5CF80917C008460F1CF82E046
:100500008093B00094E09093B1008093700089EFE5
:100510008093B3000895CF93DF9300D000D0CDB780
:10052000DEB78FB7F8942091460130914701409192
:1005300048015091490129833A834B835C838FBFE3
:1005400069817A818B819C810F900F900F900F9021
:10055000DF91CF910895E4E6F0E080818F7B808386
:10056000E0E7F0E08081826080830895E0E7F0E0DA
:1005700080818D7F8083E4E6F0E0808180648083E9
:1005800008958FB7F8941092460110924701109287
:100590004801109249018FBF0895462F572FBC0183
:1005A0002FB7F8948091460190914701A09148019E
:1005B000B0914901840F951FA61FB71F8093460174
:1005C00090934701A0934801B09349012FBF08952C
:1005D000462F572FBC012FB7F89480914601909178
:1005E0004701A0914801B0914901841B950BA60BCE
:1005F000B70B8093460190934701A0934801B093B5
:1006000049012FBF08951F921FB61F9211248F9387
:100610009F93AF93BF938091460190914701A09122
:100620004801B09149010196A11DB11D8093460179
:1006300090934701A0934801B0934901BF91AF91B6
:100640009F918F911F901FBE1F901895CF93C82F19
:100650008A3019F48DE00E9426038091C00085FF46
:10066000FCCFC093C60080E090E0CF9108958091C8
:10067000C00087FFFCCF8091C60090E008951092E3
:10068000C50087E68093C400E0ECF0E080818D7FB8
:10069000808386E08093C20088E18093C100089542
:1006A0000E943F03EAE4F1E08EE091E093838283CD
:1006B00080E091E091838083089584B18C6284B955
:1006C0002C9A8CB580618CBD8CB58CBD8DB58DBDE3
:1006D0008CB580648CBD0895813049F48CB58CBD97
:1006E0008CB584608CBD8CB58CBD8CB50EC0823051
:1006F00029F48CB588608CBD8CB5F4CF833099F724
:100700008CB588608CBD8CB584608CBD08958EBD21
:100710000DB407FEFDCF08951EBC0DB407FEFDCF3E
:100720008EBD0DB407FEFDCF089500D000D000D0DF
:10073000CDB7DEB70E9450030E945D032FEF31EE6C
:1007400044E0215030404040E1F700C000000E94EA
:1007500037015FEF81EE94E0515080409040E1F727
:1007600000C0000080E091E20E94FE002FEF31EE19
:1007700044E0215030404040E1F700C000000E94BA
:100780007F0278941A8219820E948B0289819A8151
:100790000E9453009C01990F440B550B2B833C8303
:1007A0004D835E8348E250E26B817C818D819E8126
:1007B0000E94AB010E948B02462F572F5A83498318
:1007C000E3CF0E94F5030C94D6040E94CF0458F0A6
:1007D0000E94C80440F029F45F3F29F00C94BF0444
:1007E00051110C940A050C94C5040E94E70468F3A7
:1007F0009923B1F3552391F3951B550BBB27AA27DA
:1008000062177307840738F09F5F5F4F220F331F13
:10081000441FAA1FA9F335D00E2E3AF0E0E832D0DB
:1008200091505040E695001CCAF72BD0FE2F29D0DE
:10083000660F771F881FBB1F261737074807AB07B0
:10084000B0E809F0BB0B802DBF01FF2793585F4F25
:100850003AF09E3F510578F00C94BF040C940A05C1
:100860005F3FE4F3983ED4F3869577956795B79507
:10087000F7959F5FC9F7880F911D9695879597F912
:100880000895E1E0660F771F881FBB1F621773078B
:100890008407BA0720F0621B730B840BBA0BEE1FA0
:1008A00088F7E09508950E94EF0488F09F5798F02C
:1008B000B92F9927B751B0F0E1F0660F771F881F65
:1008C000991F1AF0BA95C9F714C0B13091F00E947F
:1008D0000905B1E008950C940905672F782F882742
:1008E000B85F39F0B93FCCF3869577956795B395A6
:1008F000D9F73EF490958095709561957F4F8F4F15
:100900009F4F0895E89409C097FB3EF49095809519
:10091000709561957F4F8F4F9F4F9923A9F0F92FC5
:1009200096E9BB279395F695879577956795B79543
:10093000F111F8CFFAF4BB0F11F460FF1BC06F5F29
:100940007F4F8F4F9F4F16C0882311F096E911C03B
:10095000772321F09EE8872F762F05C0662371F05C
:1009600096E8862F70E060E02AF09A95660F771F70
:10097000881FDAF7880F9695879597F9089597F964
:100980009F6780E870E060E008959FEF80EC089535
:1009900000240A941616170618060906089500245E
:1009A0000A9412161306140605060895092E0394D8
:1009B000000C11F4882352F0BB0F40F4BF2B11F44C
:1009C00060FF04C06F5F7F4F8F4F9F4F089557FDAB
:1009D0009058440F551F59F05F3F71F04795880FAD
:1009E00097FB991F61F09F3F79F087950895121644
:1009F00013061406551FF2CF4695F1DF08C01616F0
:100A000017061806991FF1CF8695710561050894A0
:100A10000895E894BB2766277727CB0197F90895B7
:100A20000E9423050C94D6040E94C80438F00E944A
:100A3000CF0420F0952311F00C94BF040C94C5044E
:100A400011240C940A050E94E70470F3959FC1F3EA
:100A5000950F50E0551F629FF001729FBB27F00D6C
:100A6000B11D639FAA27F00DB11DAA1F649F6627C1
:100A7000B00DA11D661F829F2227B00DA11D621F10
:100A8000739FB00DA11D621F839FA00D611D221FCA
:100A9000749F3327A00D611D231F849F600D211DAE
:100AA000822F762F6A2F11249F5750409AF0F1F031
:100AB00088234AF0EE0FFF1FBB1F661F771F881F9A
:100AC00091505040A9F79E3F510580F00C94BF040F
:100AD0000C940A055F3FE4F3983ED4F3869577952E
:100AE0006795B795F795E7959F5FC1F7FE2B880F40
:100AF000911D9695879597F90895A0E0B0E0E3E8F9
:100B0000F5E00C944808AE014B5F5F4FFA0161912C
:100B10007191AF0180914C0190914D010E9493051C
:100B2000E2E00C946408AFE0B0E0E9E9F5E00C9491
:100B30003B086C017B018A01DC0117961C921E9216
:100B4000169713968C9181FFECC12AE0522EF60184
:100B50009381F70193FD859193FF81917F01882314
:100B600009F473C0853239F493FD859193FF819127
:100B70007F01853229F4B60190E00E94AA07E7CFF1
:100B8000912C612C712CFFE1F71508F446C08B32D3
:100B9000C9F1F8F48032C1F1833209F43BC08336E5
:100BA00009F48AC0833709F493C0833509F0B6C0CD
:100BB000F801A190B1908F01692D70E076FC02C020
:100BC0006FEF7FEFC5010E9494074C01689477F89E
:100BD0005FC08D32E1F0803351F020ED280F2A30D4
:100BE00048F18E3209F039C0689476F802C06894F2
:100BF00070F8F70193FD859193FF81917F01811139
:100C0000C2CF33C0689471F8689472F8F2CF6894D8
:100C100073F8EFCF689474F8ECCF77FC26C020ED22
:100C2000280F2A3070F476FE05C0959C200D112403
:100C3000922EDFCF659C200D1124622E689475F8EA
:100C4000D8CF8E3251F476FECFCFD60116968D9145
:100C50009C912F96EFE00C9457088C3619F4689409
:100C600077F8C7CF883609F4C4CF982F9F7D955465
:100C7000933008F094CF0C5F1F4F8FE38983882453
:100C80008394912CAE014F5F5F4F5A01E89477F83F
:100C900073FC05C0862D90E08816990640F18114FA
:100CA000910461F5662009F452CFB60180E290E02C
:100CB0000E94AA076A94F6CFD8018C9189830E5FAF
:100CC0001F4F88248394912CFE0131965F01DECF63
:100CD000D801AD90BD908D01692D70E076FC02C009
:100CE0006FEF7FEFC5010E949F074C01CFCFB60188
:100CF00080E290E00E94AA076A94CCCFF50177FCCD
:100D0000859177FE81915F01B60190E00E94AA076C
:100D100061106A94F1E08F1A9108C1CF843619F0FE
:100D2000893609F081C0F80177FE77C06191719131
:100D3000819191918F01272D2F76822E97FF09C0E7
:100D400090958095709561957F4F8F4F9F4F6894D8
:100D500087F82AE030E0AE014F5F5F4F5A010E94F2
:100D6000DA078A19A82EBA2C782C86FE0CC0E894D3
:100D700070F8A91440F484FE05C082FC03C0782DED
:100D80007E7E772EB92C74FEA5C0FE01EA0DF11D02
:100D90008081803309F097C0872D897E782E73FC7F
:100DA0000EC070FEA6C09A2CB61418F4960C9B18B0
:100DB000B62C862D8B196B1408F480E0B80EB6148F
:100DC00008F099C06B1874FE98C0B60180E390E0FB
:100DD0000E94AA0772FE09C088E590E071FC02C07B
:100DE00088E790E0B6010E94AA07A91408F492C00F
:100DF000AA94B12C9FEFA91AB90ADE0111964D01F0
:100E0000AA0EBB1EF50182915F01B60190E00E941F
:100E1000AA078A149B04B1F745CF61917191072EFF
:100E2000000C880B990B86CF872CE89484F82AE075
:100E300030E0853769F0572D597F852E803771F165
:100E400018F5883571F18F3609F0FFCE28E030E0D3
:100E5000F80187FE2EC081919191A191B1918C876B
:100E60009D87AE87BF878F01BE016F5F7F4F5B019C
:100E7000AB016C857D858E859F850E94DA078A1976
:100E8000A82EE89487F86FCF883709F0DECE84FE6D
:100E900002C0689482F820E130E0DACF689484F8E8
:100EA000F6CF74FE03C0652F6660862E20E132E027
:100EB000CFCF81919191AC0160E070E04C875D876C
:100EC0006E877F87D0CF72FC02C0B39468CFB39493
:100ED000B39465CF872D8678882309F460CFF5CF4A
:100EE000B60180E290E00E94AA0783948614C0F3C2
:100EF00060CF8B2CFBCF612C66CF872D8678882323
:100F000009F473CF8BE271FE80E277FC8DE2B601CB
:100F100090E069CFB60180E390E00E94AA079A941E
:100F200064CF8FEF9FEF95CEFC010590615070402C
:100F30000110D8F7809590958E0F9F1F0895FC01A2
:100F40006150704001900110D8F7809590958E0FF8
:100F50009F1F08950F931F93CF93DF93182F092F8F
:100F6000EB018B8181FD09C01FEF0FEF812F902FC7
:100F7000DF91CF911F910F91089582FF14C02E81B0
:100F80003F818C819D81281739073CF4E881F981E4
:100F9000CF0101969983888310838E819F8101966A
:100FA0009F838E83E3CFE885F985812F0995892B6F
:100FB000A1F3DACFFA01AA27283051F1203181F1CB
:100FC000E8946F936E7F6E5F7F4F8F4F9F4FAF4F51
:100FD000B1E03ED0B4E03CD0670F781F891F9A1F64
:100FE000A11D680F791F8A1F911DA11D6A0F711D18
:100FF000811D911DA11D20D009F468943F912AE024
:10100000269F11243019305D3193DEF6CF0108950B
:10101000462F4770405D4193B3E00FD0C9F7F6CF3C
:10102000462F4F70405D4A3318F0495D31FD405204
:10103000419302D0A9F7EACFB4E0A695979587959A
:1010400077956795BA95C9F7009761057105089579
:101050009B01AC010A2E0694579547953795279525
:10106000BA95C9F7620F731F841F951FA01D0895BD
:101070002F923F924F925F926F927F928F929F92A8
:10108000AF92BF92CF92DF92EF92FF920F931F9396
:10109000CF93DF93CDB7DEB7CA1BDB0B0FB6F89447
:1010A000DEBF0FBECDBF09942A88398848885F8487
:1010B0006E847D848C849B84AA84B984C884DF80F8
:1010C000EE80FD800C811B81AA81B981CE0FD11DDC
:1010D0000FB6F894DEBF0FBECDBFED010895F894B2
:0210E000FFCF40
:1010E20000000001000000000000370300000000C3
:1010F2000002000000002603000000000220282059
:1011020000204441543A202564004C4F573A202590
:101112006400484947483A202564005445455354E1
:0611220020256C660000B0
:00000001FF
