:100000000C9434000C9451000C9451000C94510049
:100010000C9451000C9451000C9451000C94480421
:100020000C9451000C9451000C9451000C9451000C
:100030000C9451000C9451000C9451000C945100FC
:100040000C9451000C9451000C9451000C945100EC
:100050000C9451000C9451000C9451000C945100DC
:100060000C9451000C94510011241FBECFEFD8E026
:10007000DEBFCDBF11E0A0E0B1E0E0EBFDE002C0EB
:1000800005900D92A432B107D9F721E0A4E2B1E0C6
:1000900001C01D92AA34B207E1F70E94DA040C9461
:1000A000D6060C94000082E00E947C039C012E3F47
:1000B00081E0380748F481E080930001263631055D
:1000C00010F583E090E0089582E080930001C9017B
:1000D0008E5F914086369105A0F3C9018456924007
:1000E00086369105B0F08656910986369105D0F096
:1000F0008656910986369105E8F0265933402A360E
:100100003105D8F00895C9018656910986369105C2
:1001100018F484E090E00895C9018C5C910986365A
:10012000910518F485E090E0089522533140263679
:10013000310518F486E090E0089587E090E0089596
:100140000F931F93CF93DF9300D000D000D0CDB793
:10015000DEB74D835E8300E010E02D813E81021703
:10016000130764F0CB010F900F900F900F900F903A
:100170000F90DF91CF911F910F9108950E94DB05A1
:1001800023E63CE947E85FE369837A838B839C83BA
:1001900069817A818B819C810E94690669837A8357
:1001A0008B839C8369817A818B819C810E94AC05C1
:1001B0000F5F1F4FD2CFCF93DF9300D000D0CDB7CA
:1001C000DEB7A4E2B1E06C93709325018093260121
:1001D0009093270144E050E00E94A0009C01990FF9
:1001E000440B550B29833A834B835C83209328016E
:1001F0003093290140932A0150932B0143E050E0B2
:1002000069817A818B819C810E94A0009C01990F59
:10021000440B550B29833A834B835C8320932C0139
:1002200030932D0140932E0150932F0144E050E074
:1002300069817A818B819C810E94A0009C01990F29
:10024000440B550B29833A834B835C832093300105
:1002500030933101409332015093330143E050E039
:1002600069817A818B819C810E94A0009C01990FF9
:10027000440B550B29833A834B835C8320933401D1
:1002800030933501409336015093370143E050E0FD
:1002900069817A818B819C810E94A0009C01990FC9
:1002A000440B550B29833A834B835C83209338019D
:1002B0003093390140933A0150933B0144E050E0C0
:1002C00069817A818B819C810E94A000092E000C9B
:1002D000AA0BBB0B80933C0190933D01A0933E0180
:1002E000B0933F010F900F900F900F90DF91CF913F
:1002F0000895CF93DF9300D000D0CDB7DEB7A4E24E
:10030000B1E06C93709325018093260190932701AF
:1003100043E050E00E94A0009C01990F440B550B54
:1003200029833A834B835C832093280130932901EE
:1003300040932A0150932B0144E050E069817A8177
:100340008B819C810E94A0009C01990F440B550B4E
:1003500029833A834B835C8320932C0130932D01B6
:1003600040932E0150932F0143E050E069817A8140
:100370008B819C810E94A0009C01990F440B550B1E
:1003800029833A834B835C8320933001309331017E
:10039000409332015093330144E050E069817A8107
:1003A0008B819C810E94A0009C01990F440B550BEE
:1003B00029833A834B835C83209334013093350146
:1003C000409336015093370143E050E069817A81D0
:1003D0008B819C810E94A0009C01990F440B550BBE
:1003E00029833A834B835C8320933801309339010E
:1003F00040933A0150933B0144E050E069817A8197
:100400008B819C810E94A000092E000CAA0BBB0BC3
:1004100080933C0190933D01A0933E01B0933F0136
:100420000F900F900F900F90DF91CF9108950F9341
:100430001F93CF93DF9300D000D000D0CDB7DEB7AD
:1004400081E00E947C039C018655910985359105C8
:1004500008F457C0855591098635910508F456C0B2
:10046000865591098535910508F455C08555910942
:100470008535910508F454C0855591098535910558
:1004800008F451C0855591098635910508F44EC090
:10049000865591098535910508F44BC01E821D8251
:1004A000C9018B5A92408535910508F445C08555A0
:1004B00091098635910508F442C086559109853524
:1004C000910508F43FC02B5A33408BE090E025356E
:1004D000310518F100E010E06CED70E080E090E094
:1004E0002D813E812017310781F5CB010F900F90B0
:1004F0000F900F900F900F90DF91CF911F910F9160
:10050000089581E090E09E838D83CACF22E030E0A1
:100510003E832D83DFCF83E090E09E838D83DACF0F
:1005200024E030E0F5CF85E090E0F7CF26E030E042
:10053000EFCF87E090E0F1CF28E030E0E9CF89E02D
:1005400090E0EBCF2AE030E0E3CF0E94DB0523E62A
:100550003CE947E85FE369837A838B839C83698105
:100560007A818B819C810E94690669837A838B835F
:100570009C8369817A818B819C810E94AC050F5F8D
:100580001F4FAECFCF93DF93EC0182E00E94B10406
:100590002A988FE39CE90197F1F700C000008D2FA6
:1005A0000E94CC048C2F0E94CC042A9ADF91CF9118
:1005B000089580E091E00C94C2020F931F93CF93B3
:1005C000DF9300D000D000D0CDB7DEB74E835D837F
:1005D0000E94DB0520E030E040E85DE469837A8337
:1005E0008B839C8369817A818B819C810E946906BF
:1005F00020E23CEB4EEB5BE469837A838B839C8344
:1006000069817A818B819C810E943A0569837A8312
:100610008B839C8369817A818B819C810E94AC054C
:100620008B019C01CB019F734EE036952795179562
:1006300007954A95D1F71F7390640E94C202C801C2
:1006400090640E94C20280E090EC0E94C2028E81FF
:100650009D810F900F900F900F900F900F90DF9152
:10066000CF911F910F910C94C202CF92DF92EF9223
:10067000FF920F931F93CF93DF9300D000D000D051
:10068000CDB7DEB78D839E83F62EE72E84E2C82E8B
:1006900081E0D82E00E010E0AD81BE810A171B0773
:1006A0007CF00F900F900F900F900F900F90DF91B4
:1006B000CF911F910F91FF90EF90DF90CF90089511
:1006C000F60181919191A191B1916F0189839A83F2
:1006D000AB83BC834F2D5E2DBC01CD010E94DD029A
:1006E000FFEF28EF85E1F15020408040E1F700C0A6
:1006F00000000F5F1F4FD0CF90917C0090649093CB
:100700007C0090917A00976090937A0090917A00A3
:10071000906890937A0090917C00982B90937C0045
:1007200090917C00907F90937C00833029F190F42D
:100730008130C1F08230E1F080917A008064809352
:100740007A0080917A0086FDFCCF809178009091AC
:10075000790008958430A1F0853071F780917C0094
:10076000856003C080917C00816080937C00E4CF31
:1007700080917C008260F9CF80917C008360F5CF0E
:1007800080917C008460F1CF82E08093B00094E09F
:100790009093B1008093700089EF8093B300089527
:1007A000CF93DF9300D000D0CDB7DEB78FB7F894EA
:1007B000209140013091410140914201509143010B
:1007C00029833A834B835C838FBF69817A818B81D4
:1007D0009C810F900F900F900F90DF91CF91089513
:1007E000E4E6F0E080818F7B8083E0E7F0E08081C9
:1007F000826080830895E0E7F0E080818D7F8083D0
:10080000E4E6F0E080818064808308958FB7F894F7
:100810001092400110924101109242011092430146
:100820008FBF0895462F572FBC012FB7F8948091A2
:10083000400190914101A0914201B0914301840F88
:10084000951FA61FB71F8093400190934101A0936D
:100850004201B09343012FBF0895462F572FBC018B
:100860002FB7F8948091400190914101A0914201ED
:10087000B0914301841B950BA60BB70B80934001ED
:1008800090934101A0934201B09343012FBF08957B
:100890001F921FB61F9211248F939F93AF93BF9304
:1008A0008091400190914101A0914201B09143019A
:1008B0000196A11DB11D8093400190934101A09329
:1008C0004201B0934301BF91AF919F918F911F90CF
:1008D0001FBE1F901895CF93C82F8A3019F48DE052
:1008E0000E946B048091C00085FFFCCFC093C600BE
:1008F00080E090E0CF9108958091C00087FFFCCF09
:100900008091C60090E008951092C50087E680931C
:10091000C400E0ECF0E080818D7F808386E08093EE
:10092000C20088E18093C10008950E948404E4E439
:10093000F1E08FE091E09383828381E091E0918305
:100940008083089584B18C6284B92C9A8CB58061BF
:100950008CBD8CB58CBD8DB58DBD8CB580648CBDCA
:100960000895813049F48CB58CBD8CB584608CBD04
:100970008CB58CBD8CB50EC0823029F48CB58860E6
:100980008CBD8CB5F4CF833099F78CB588608CBD65
:100990008CB584608CBD08958EBD0DB407FEFDCF6F
:1009A00008951EBC0DB407FEFDCF8EBD0DB407FE2D
:1009B000FDCF089500D000D000D0CDB7DEB70E94A3
:1009C00095040E94A2042FEF31EE44E02150304004
:1009D0004040E1F700C000000E94D9025FEF81EEC5
:1009E00094E0515080409040E1F700C0000080E06A
:1009F00091E20E94C2022FEF31EE44E021503040DC
:100A00004040E1F700C000000E94C40378941A82BD
:100A100019820E94D00389819A810E9417029C0149
:100A2000990F440B550B2B833C834D835E830E94AF
:100A300053008C0180910001813031F46B817C8105
:100A40008D819E810E94DB0080910001823031F413
:100A50006B817C818D819E810E94790168E270E2C8
:100A6000C8010E9435030E94D003462F572F5A8396
:100A70004983CFCF0E944E050C942F060E94280672
:100A800058F00E94210640F029F45F3F29F00C94B1
:100A9000180651110C9463060C941E060E94400621
:100AA00068F39923B1F3552391F3951B550BBB279D
:100AB000AA2762177307840738F09F5F5F4F220FE2
:100AC000331F441FAA1FA9F335D00E2E3AF0E0E8D9
:100AD00032D091505040E695001CCAF72BD0FE2F23
:100AE00029D0660F771F881FBB1F261737074807B7
:100AF000AB07B0E809F0BB0B802DBF01FF2793586F
:100B00005F4F3AF09E3F510578F00C9418060C9414
:100B100063065F3FE4F3983ED4F386957795679537
:100B2000B795F7959F5FC9F7880F911D96958795A3
:100B300097F90895E1E0660F771F881FBB1F6217C2
:100B400073078407BA0720F0621B730B840BBA0B80
:100B5000EE1F88F7E09508950E94480688F09F5799
:100B600098F0B92F9927B751B0F0E1F0660F771FD1
:100B7000881F991F1AF0BA95C9F714C0B13091F0C7
:100B80000E946206B1E008950C946206672F782FE8
:100B90008827B85F39F0B93FCCF38695779567958C
:100BA000B395D9F73EF490958095709561957F4FF8
:100BB0008F4F9F4F0895E89409C097FB3EF490959E
:100BC0008095709561957F4F8F4F9F4F9923A9F026
:100BD000F92F96E9BB279395F695879577956795B5
:100BE000B795F111F8CFFAF4BB0F11F460FF1BC0F9
:100BF0006F5F7F4F8F4F9F4F16C0882311F096E98C
:100C000011C0772321F09EE8872F762F05C0662339
:100C100071F096E8862F70E060E02AF09A95660FF2
:100C2000771F881FDAF7880F9695879597F90895AB
:100C300097F99F6780E870E060E008959FEF80EC8F
:100C4000089500240A941616170618060906089532
:100C500000240A9412161306140605060895092E98
:100C60000394000C11F4882352F0BB0F40F4BF2B07
:100C700011F460FF04C06F5F7F4F8F4F9F4F089547
:100C800057FD9058440F551F59F05F3F71F047953D
:100C9000880F97FB991F61F09F3F79F08795089522
:100CA000121613061406551FF2CF4695F1DF08C041
:100CB000161617061806991FF1CF8695710561055E
:100CC00008940895E894BB2766277727CB0197F906
:100CD00008950E947C060C942F060E94210638F08D
:100CE0000E94280620F0952311F00C9418060C940D
:100CF0001E0611240C9463060E94400670F3959F13
:100D0000C1F3950F50E0551F629FF001729FBB2702
:100D1000F00DB11D639FAA27F00DB11DAA1F649F9E
:100D20006627B00DA11D661F829F2227B00DA11D51
:100D3000621F739FB00DA11D621F839FA00D611DD7
:100D4000221F749F3327A00D611D231F849F600DF8
:100D5000211D822F762F6A2F11249F5750409AF021
:100D6000F1F088234AF0EE0FFF1FBB1F661F771FAD
:100D7000881F91505040A9F79E3F510580F00C9478
:100D800018060C9463065F3FE4F3983ED4F386950F
:100D900077956795B795F795E7959F5FC1F7FE2B18
:100DA000880F911D9695879597F90895F894FFCF30
:100DB00001000000010000000000007C04000000B1
:100DC000000002000000006B040000000002202868
:040DD00020002000DF
:00000001FF
